{
  "_format": "hh-sol-artifact-1",
  "contractName": "SimpleDCATask",
  "sourceName": "contracts/SimpleDCATask.sol",
  "abi": [
    {
      "inputs": [
        {
          "internalType": "address",
          "name": "_ops",
          "type": "address"
        },
        {
          "internalType": "address",
          "name": "_fundsOwner",
          "type": "address"
        },
        {
          "components": [
            {
              "internalType": "string",
              "name": "symbol",
              "type": "string"
            },
            {
              "internalType": "address",
              "name": "addr",
              "type": "address"
            }
          ],
          "internalType": "struct SimpleDCAV2.TokenAddr[]",
          "name": "_tokens",
          "type": "tuple[]"
        }
      ],
      "stateMutability": "nonpayable",
      "type": "constructor"
    },
    {
      "anonymous": false,
      "inputs": [
        {
          "indexed": false,
          "internalType": "address",
          "name": "owner",
          "type": "address"
        },
        {
          "components": [
            {
              "internalType": "string",
              "name": "symbol",
              "type": "string"
            },
            {
              "internalType": "uint256",
              "name": "avgBuyAmount",
              "type": "uint256"
            },
            {
              "internalType": "uint256",
              "name": "expiryTimestamp",
              "type": "uint256"
            }
          ],
          "indexed": false,
          "internalType": "struct SimpleDCAV2.Investment",
          "name": "investment",
          "type": "tuple"
        }
      ],
      "name": "InvestmentStarted",
      "type": "event"
    },
    {
      "anonymous": false,
      "inputs": [
        {
          "indexed": false,
          "internalType": "address",
          "name": "owner",
          "type": "address"
        },
        {
          "components": [
            {
              "internalType": "string",
              "name": "symbol",
              "type": "string"
            },
            {
              "internalType": "uint256",
              "name": "avgBuyAmount",
              "type": "uint256"
            },
            {
              "internalType": "uint256",
              "name": "expiryTimestamp",
              "type": "uint256"
            }
          ],
          "indexed": false,
          "internalType": "struct SimpleDCAV2.Investment",
          "name": "investment",
          "type": "tuple"
        }
      ],
      "name": "InvestmentStopped",
      "type": "event"
    },
    {
      "anonymous": false,
      "inputs": [
        {
          "indexed": true,
          "internalType": "address",
          "name": "previousOwner",
          "type": "address"
        },
        {
          "indexed": true,
          "internalType": "address",
          "name": "newOwner",
          "type": "address"
        }
      ],
      "name": "OwnershipTransferred",
      "type": "event"
    },
    {
      "anonymous": false,
      "inputs": [
        {
          "indexed": false,
          "internalType": "address",
          "name": "",
          "type": "address"
        },
        {
          "indexed": false,
          "internalType": "uint256",
          "name": "",
          "type": "uint256"
        }
      ],
      "name": "Received",
      "type": "event"
    },
    {
      "anonymous": false,
      "inputs": [
        {
          "indexed": false,
          "internalType": "bytes32",
          "name": "taskId",
          "type": "bytes32"
        }
      ],
      "name": "TaskCanceledEvent",
      "type": "event"
    },
    {
      "anonymous": false,
      "inputs": [
        {
          "indexed": false,
          "internalType": "bytes32",
          "name": "taskId",
          "type": "bytes32"
        }
      ],
      "name": "TaskCreatedEvent",
      "type": "event"
    },
    {
      "anonymous": false,
      "inputs": [
        {
          "indexed": false,
          "internalType": "bytes32",
          "name": "taskId",
          "type": "bytes32"
        }
      ],
      "name": "TaskFinishedEvent",
      "type": "event"
    },
    {
      "inputs": [],
      "name": "MAX_INVESTMENTS",
      "outputs": [
        {
          "internalType": "uint256",
          "name": "",
          "type": "uint256"
        }
      ],
      "stateMutability": "view",
      "type": "function"
    },
    {
      "inputs": [],
      "name": "MAX_INVESTMENT_TIME",
      "outputs": [
        {
          "internalType": "uint256",
          "name": "",
          "type": "uint256"
        }
      ],
      "stateMutability": "view",
      "type": "function"
    },
    {
      "inputs": [],
      "name": "MIN_INVESTMENT_TIME",
      "outputs": [
        {
          "internalType": "uint256",
          "name": "",
          "type": "uint256"
        }
      ],
      "stateMutability": "view",
      "type": "function"
    },
    {
      "inputs": [],
      "name": "POOL_FEE",
      "outputs": [
        {
          "internalType": "uint24",
          "name": "",
          "type": "uint24"
        }
      ],
      "stateMutability": "view",
      "type": "function"
    },
    {
      "inputs": [
        {
          "internalType": "uint256",
          "name": "_amountIn",
          "type": "uint256"
        }
      ],
      "name": "approveRouter",
      "outputs": [
        {
          "internalType": "bool",
          "name": "",
          "type": "bool"
        }
      ],
      "stateMutability": "nonpayable",
      "type": "function"
    },
    {
      "inputs": [
        {
          "internalType": "uint256",
          "name": "_accountInvestmentIdx",
          "type": "uint256"
        }
      ],
      "name": "cancelTask",
      "outputs": [
        {
          "internalType": "bool",
          "name": "",
          "type": "bool"
        }
      ],
      "stateMutability": "nonpayable",
      "type": "function"
    },
    {
      "inputs": [
        {
          "internalType": "address",
          "name": "_account",
          "type": "address"
        },
        {
          "internalType": "uint256",
          "name": "_accountInvestmenIdx",
          "type": "uint256"
        }
      ],
      "name": "checker",
      "outputs": [
        {
          "internalType": "bool",
          "name": "canExec",
          "type": "bool"
        },
        {
          "internalType": "bytes",
          "name": "execPayload",
          "type": "bytes"
        }
      ],
      "stateMutability": "nonpayable",
      "type": "function"
    },
    {
      "inputs": [
        {
          "internalType": "uint256",
          "name": "_amount",
          "type": "uint256"
        },
        {
          "internalType": "string",
          "name": "_buyTokenSymbol",
          "type": "string"
        },
        {
          "internalType": "uint256",
          "name": "_duration",
          "type": "uint256"
        }
      ],
      "name": "createTask",
      "outputs": [
        {
          "internalType": "bytes32",
          "name": "",
          "type": "bytes32"
        }
      ],
      "stateMutability": "nonpayable",
      "type": "function"
    },
    {
      "inputs": [],
      "name": "dedicatedMsgSender",
      "outputs": [
        {
          "internalType": "address",
          "name": "",
          "type": "address"
        }
      ],
      "stateMutability": "view",
      "type": "function"
    },
    {
      "inputs": [],
      "name": "deposit",
      "outputs": [],
      "stateMutability": "payable",
      "type": "function"
    },
    {
      "inputs": [],
      "name": "fundsOwner",
      "outputs": [
        {
          "internalType": "address",
          "name": "",
          "type": "address"
        }
      ],
      "stateMutability": "view",
      "type": "function"
    },
    {
      "inputs": [
        {
          "internalType": "string",
          "name": "_tokenSymbol",
          "type": "string"
        }
      ],
      "name": "getAllowance",
      "outputs": [
        {
          "internalType": "uint256",
          "name": "",
          "type": "uint256"
        }
      ],
      "stateMutability": "view",
      "type": "function"
    },
    {
      "inputs": [],
      "name": "getOwnInvestments",
      "outputs": [
        {
          "components": [
            {
              "internalType": "string",
              "name": "symbol",
              "type": "string"
            },
            {
              "internalType": "uint256",
              "name": "avgBuyAmount",
              "type": "uint256"
            },
            {
              "internalType": "uint256",
              "name": "expiryTimestamp",
              "type": "uint256"
            }
          ],
          "internalType": "struct SimpleDCAV2.Investment[]",
          "name": "",
          "type": "tuple[]"
        }
      ],
      "stateMutability": "view",
      "type": "function"
    },
    {
      "inputs": [
        {
          "internalType": "string",
          "name": "_tokenSymbol",
          "type": "string"
        }
      ],
      "name": "getUserTokenBalance",
      "outputs": [
        {
          "internalType": "uint256",
          "name": "",
          "type": "uint256"
        }
      ],
      "stateMutability": "view",
      "type": "function"
    },
    {
      "inputs": [],
      "name": "interval",
      "outputs": [
        {
          "internalType": "uint256",
          "name": "",
          "type": "uint256"
        }
      ],
      "stateMutability": "view",
      "type": "function"
    },
    {
      "inputs": [
        {
          "internalType": "address",
          "name": "_account",
          "type": "address"
        },
        {
          "internalType": "uint256",
          "name": "_accountInvestmentIdx",
          "type": "uint256"
        }
      ],
      "name": "invest",
      "outputs": [
        {
          "internalType": "bool",
          "name": "",
          "type": "bool"
        }
      ],
      "stateMutability": "nonpayable",
      "type": "function"
    },
    {
      "inputs": [],
      "name": "ops",
      "outputs": [
        {
          "internalType": "contract IOps",
          "name": "",
          "type": "address"
        }
      ],
      "stateMutability": "view",
      "type": "function"
    },
    {
      "inputs": [],
      "name": "owner",
      "outputs": [
        {
          "internalType": "address",
          "name": "",
          "type": "address"
        }
      ],
      "stateMutability": "view",
      "type": "function"
    },
    {
      "inputs": [],
      "name": "renounceOwnership",
      "outputs": [],
      "stateMutability": "nonpayable",
      "type": "function"
    },
    {
      "inputs": [],
      "name": "swapRouter",
      "outputs": [
        {
          "internalType": "contract ISwapRouter",
          "name": "",
          "type": "address"
        }
      ],
      "stateMutability": "view",
      "type": "function"
    },
    {
      "inputs": [
        {
          "internalType": "uint256",
          "name": "_amount",
          "type": "uint256"
        }
      ],
      "name": "swapWETHtoUSDC",
      "outputs": [
        {
          "internalType": "uint256",
          "name": "amountOut",
          "type": "uint256"
        }
      ],
      "stateMutability": "payable",
      "type": "function"
    },
    {
      "inputs": [],
      "name": "taskTreasury",
      "outputs": [
        {
          "internalType": "contract ITaskTreasuryUpgradable",
          "name": "",
          "type": "address"
        }
      ],
      "stateMutability": "view",
      "type": "function"
    },
    {
      "inputs": [
        {
          "internalType": "string",
          "name": "",
          "type": "string"
        }
      ],
      "name": "tokenAddresses",
      "outputs": [
        {
          "internalType": "address",
          "name": "",
          "type": "address"
        }
      ],
      "stateMutability": "view",
      "type": "function"
    },
    {
      "inputs": [
        {
          "internalType": "address",
          "name": "newOwner",
          "type": "address"
        }
      ],
      "name": "transferOwnership",
      "outputs": [],
      "stateMutability": "nonpayable",
      "type": "function"
    },
    {
      "inputs": [
        {
          "internalType": "uint256",
          "name": "_amount",
          "type": "uint256"
        },
        {
          "internalType": "address",
          "name": "_token",
          "type": "address"
        }
      ],
      "name": "withdrawFunds",
      "outputs": [],
      "stateMutability": "nonpayable",
      "type": "function"
    },
    {
      "inputs": [],
      "name": "wrapEth",
      "outputs": [
        {
          "internalType": "bool",
          "name": "",
          "type": "bool"
        }
      ],
      "stateMutability": "payable",
      "type": "function"
    }
  ],
  "bytecode": "0x61016060405273e592427a0aece92de3edee1f18e0157c0586156473ffffffffffffffffffffffffffffffffffffffff166101209073ffffffffffffffffffffffffffffffffffffffff168152503480156200005a57600080fd5b5060405162005d4a38038062005d4a833981810160405281019062000080919062000829565b80838381308173ffffffffffffffffffffffffffffffffffffffff1660808173ffffffffffffffffffffffffffffffffffffffff16815250508173ffffffffffffffffffffffffffffffffffffffff1663573ea5756040518163ffffffff1660e01b8152600401602060405180830381865afa15801562000105573d6000803e3d6000fd5b505050506040513d601f19601f820116820180604052508101906200012b9190620008e9565b73ffffffffffffffffffffffffffffffffffffffff1660c08173ffffffffffffffffffffffffffffffffffffffff168152505073c815db16d4be6ddf2685c201937905abf338f5d773ffffffffffffffffffffffffffffffffffffffff1663ded89a7c826040518263ffffffff1660e01b8152600401620001ad91906200092c565b6040805180830381865afa158015620001ca573d6000803e3d6000fd5b505050506040513d601f19601f82011682018060405250810190620001f0919062000986565b508073ffffffffffffffffffffffffffffffffffffffff1660a09073ffffffffffffffffffffffffffffffffffffffff168152505050508073ffffffffffffffffffffffffffffffffffffffff1660e08173ffffffffffffffffffffffffffffffffffffffff168152505060805173ffffffffffffffffffffffffffffffffffffffff1663e60a32136040518163ffffffff1660e01b8152600401602060405180830381865afa158015620002a9573d6000803e3d6000fd5b505050506040513d601f19601f82011682018060405250810190620002cf919062000a12565b73ffffffffffffffffffffffffffffffffffffffff166101008173ffffffffffffffffffffffffffffffffffffffff168152505050506200032562000319620003e760201b60201c565b620003ef60201b60201c565b60005b8151811015620003d25760008282815181106200034a576200034962000a44565b5b602002602001015190508060200151600182600001516040516200036f919062000ac0565b908152602001604051809103902060006101000a81548173ffffffffffffffffffffffffffffffffffffffff021916908373ffffffffffffffffffffffffffffffffffffffff160217905550508080620003c99062000b12565b91505062000328565b50506078610140818152505050505062000b5f565b600033905090565b60008060009054906101000a900473ffffffffffffffffffffffffffffffffffffffff169050816000806101000a81548173ffffffffffffffffffffffffffffffffffffffff021916908373ffffffffffffffffffffffffffffffffffffffff1602179055508173ffffffffffffffffffffffffffffffffffffffff168173ffffffffffffffffffffffffffffffffffffffff167f8be0079c531659141344cd1fd0a4f28419497f9722a3daafe3b4186f6b6457e060405160405180910390a35050565b6000604051905090565b600080fd5b600080fd5b600073ffffffffffffffffffffffffffffffffffffffff82169050919050565b6000620004f482620004c7565b9050919050565b6200050681620004e7565b81146200051257600080fd5b50565b6000815190506200052681620004fb565b92915050565b600080fd5b6000601f19601f8301169050919050565b7f4e487b7100000000000000000000000000000000000000000000000000000000600052604160045260246000fd5b6200057c8262000531565b810181811067ffffffffffffffff821117156200059e576200059d62000542565b5b80604052505050565b6000620005b3620004b3565b9050620005c1828262000571565b919050565b600067ffffffffffffffff821115620005e457620005e362000542565b5b602082029050602081019050919050565b600080fd5b600080fd5b600080fd5b600080fd5b600067ffffffffffffffff82111562000627576200062662000542565b5b620006328262000531565b9050602081019050919050565b60005b838110156200065f57808201518184015260208101905062000642565b60008484015250505050565b6000620006826200067c8462000609565b620005a7565b905082815260208101848484011115620006a157620006a062000604565b5b620006ae8482856200063f565b509392505050565b600082601f830112620006ce57620006cd6200052c565b5b8151620006e08482602086016200066b565b91505092915050565b600060408284031215620007025762000701620005fa565b5b6200070e6040620005a7565b9050600082015167ffffffffffffffff811115620007315762000730620005ff565b5b6200073f84828501620006b6565b6000830152506020620007558482850162000515565b60208301525092915050565b6000620007786200077284620005c6565b620005a7565b905080838252602082019050602084028301858111156200079e576200079d620005f5565b5b835b81811015620007ec57805167ffffffffffffffff811115620007c757620007c66200052c565b5b808601620007d68982620006e9565b85526020850194505050602081019050620007a0565b5050509392505050565b600082601f8301126200080e576200080d6200052c565b5b81516200082084826020860162000761565b91505092915050565b600080600060608486031215620008455762000844620004bd565b5b6000620008558682870162000515565b9350506020620008688682870162000515565b925050604084015167ffffffffffffffff8111156200088c576200088b620004c2565b5b6200089a86828701620007f6565b9150509250925092565b6000620008b182620004c7565b9050919050565b620008c381620008a4565b8114620008cf57600080fd5b50565b600081519050620008e381620008b8565b92915050565b600060208284031215620009025762000901620004bd565b5b60006200091284828501620008d2565b91505092915050565b6200092681620004e7565b82525050565b60006020820190506200094360008301846200091b565b92915050565b60008115159050919050565b620009608162000949565b81146200096c57600080fd5b50565b600081519050620009808162000955565b92915050565b60008060408385031215620009a0576200099f620004bd565b5b6000620009b08582860162000515565b9250506020620009c3858286016200096f565b9150509250929050565b6000620009da82620004e7565b9050919050565b620009ec81620009cd565b8114620009f857600080fd5b50565b60008151905062000a0c81620009e1565b92915050565b60006020828403121562000a2b5762000a2a620004bd565b5b600062000a3b84828501620009fb565b91505092915050565b7f4e487b7100000000000000000000000000000000000000000000000000000000600052603260045260246000fd5b600081519050919050565b600081905092915050565b600062000a968262000a73565b62000aa2818562000a7e565b935062000ab48185602086016200063f565b80840191505092915050565b600062000ace828462000a89565b915081905092915050565b7f4e487b7100000000000000000000000000000000000000000000000000000000600052601160045260246000fd5b6000819050919050565b600062000b1f8262000b08565b91507fffffffffffffffffffffffffffffffffffffffffffffffffffffffffffffffff820362000b545762000b5362000ad9565b5b600182019050919050565b60805160a05160c05160e05161010051610120516101405161514d62000bfd600039600061109b0152600081816112560152818161131c0152818161140c015281816119370152818161293a0152612a00015260008181610f6301526119a4015260008181610e9d01528181610ed50152610f9f0152600050506000610d090152600081816119c80152818161203201526133fb015261514d6000f3fe6080604052600436106101815760003560e01c80639548cdb0116100d1578063c31c9c071161008a578063e60a321311610064578063e60a32131461058a578063e70abe92146105b5578063f13943e2146105e0578063f2fde38b1461060b57610181565b8063c31c9c071461052a578063d0e30db014610555578063dd1b9c4a1461055f57610181565b80639548cdb0146103f9578063a35ff0a814610429578063b081b4eb14610466578063b9b8c24614610484578063bd0b053a146104c1578063c0f6934e146104ec57610181565b806346ee3c591161013e5780637eec20a8116101185780637eec20a8146103295780638da5cb5b14610366578063935b13f614610391578063947a36fb146103ce57610181565b806346ee3c59146102be578063715018a6146102e9578063744bfe611461030057610181565b8063062fb340146101865780630a8b4823146101b1578063202e078b146101ee578063226335041461022b57806328f150eb14610256578063319aac1f14610281575b600080fd5b34801561019257600080fd5b5061019b610634565b6040516101a8919061369f565b60405180910390f35b3480156101bd57600080fd5b506101d860048036038101906101d3919061380a565b6107f8565b6040516101e59190613862565b60405180910390f35b3480156101fa57600080fd5b50610215600480360381019061021091906138a9565b61096a565b6040516102229190613931565b60405180910390f35b34801561023757600080fd5b50610240610d00565b60405161024d9190613862565b60405180910390f35b34801561026257600080fd5b5061026b610d07565b604051610278919061398d565b60405180910390f35b34801561028d57600080fd5b506102a860048036038101906102a3919061380a565b610d2b565b6040516102b59190613862565b60405180910390f35b3480156102ca57600080fd5b506102d3610e9b565b6040516102e0919061398d565b60405180910390f35b3480156102f557600080fd5b506102fe610ebf565b005b34801561030c57600080fd5b50610327600480360381019061032291906139d4565b610ed3565b005b34801561033557600080fd5b50610350600480360381019061034b9190613a14565b611014565b60405161035d9190613a5c565b60405180910390f35b34801561037257600080fd5b5061037b611027565b604051610388919061398d565b60405180910390f35b34801561039d57600080fd5b506103b860048036038101906103b3919061380a565b611050565b6040516103c5919061398d565b60405180910390f35b3480156103da57600080fd5b506103e3611099565b6040516103f09190613862565b60405180910390f35b610413600480360381019061040e9190613a14565b6110bd565b6040516104209190613862565b60405180910390f35b34801561043557600080fd5b50610450600480360381019061044b9190613a14565b6113c4565b60405161045d9190613a5c565b60405180910390f35b61046e61143b565b60405161047b9190613a5c565b60405180910390f35b34801561049057600080fd5b506104ab60048036038101906104a69190613a77565b6115b5565b6040516104b89190613a5c565b60405180910390f35b3480156104cd57600080fd5b506104d66116f6565b6040516104e39190613862565b60405180910390f35b3480156104f857600080fd5b50610513600480360381019061050e9190613a77565b6116fb565b604051610521929190613b0c565b60405180910390f35b34801561053657600080fd5b5061053f611935565b60405161054c9190613b9b565b60405180910390f35b61055d611959565b005b34801561056b57600080fd5b5061057461199c565b6040516105819190613bd4565b60405180910390f35b34801561059657600080fd5b5061059f6119a2565b6040516105ac9190613c10565b60405180910390f35b3480156105c157600080fd5b506105ca6119c6565b6040516105d79190613c4c565b60405180910390f35b3480156105ec57600080fd5b506105f56119ea565b6040516106029190613862565b60405180910390f35b34801561061757600080fd5b50610632600480360381019061062d9190613c67565b6119f2565b005b60606000600560003373ffffffffffffffffffffffffffffffffffffffff1673ffffffffffffffffffffffffffffffffffffffff16815260200190815260200160002054036106b8576040517f08c379a00000000000000000000000000000000000000000000000000000000081526004016106af90613d17565b60405180910390fd5b600260003373ffffffffffffffffffffffffffffffffffffffff1673ffffffffffffffffffffffffffffffffffffffff168152602001908152602001600020805480602002602001604051908101604052809291908181526020016000905b828210156107ef578382906000526020600020906003020160405180606001604052908160008201805461074a90613d66565b80601f016020809104026020016040519081016040528092919081815260200182805461077690613d66565b80156107c35780601f10610798576101008083540402835291602001916107c3565b820191906000526020600020905b8154815290600101906020018083116107a657829003601f168201915b505050505081526020016001820154815260200160028201548152505081526020019060010190610717565b50505050905090565b600081600073ffffffffffffffffffffffffffffffffffffffff166001826040516108239190613dd3565b908152602001604051809103902060009054906101000a900473ffffffffffffffffffffffffffffffffffffffff1673ffffffffffffffffffffffffffffffffffffffff16036108a8576040517f08c379a000000000000000000000000000000000000000000000000000000000815260040161089f90613e5c565b60405180910390fd5b6001836040516108b89190613dd3565b908152602001604051809103902060009054906101000a900473ffffffffffffffffffffffffffffffffffffffff1673ffffffffffffffffffffffffffffffffffffffff1663dd62ed3e33306040518363ffffffff1660e01b8152600401610921929190613e7c565b602060405180830381865afa15801561093e573d6000803e3d6000fd5b505050506040513d601f19601f820116820180604052508101906109629190613eba565b915050919050565b60008061097985858533611a75565b905060003073ffffffffffffffffffffffffffffffffffffffff1663b9b8c24633846040516024016109ac929190613ee7565b604051602081830303815290604052915060e01b6020820180517bffffffffffffffffffffffffffffffffffffffffffffffffffffffff8381831617835250505050905060006040518060400160405280600267ffffffffffffffff811115610a1857610a176136df565b5b604051908082528060200260200182016040528015610a465781602001602082028036833780820191505090505b508152602001600267ffffffffffffffff811115610a6757610a666136df565b5b604051908082528060200260200182016040528015610a9a57816020015b6060815260200190600190039081610a855790505b50815250905060008160000151600081518110610aba57610ab9613f10565b5b60200260200101906003811115610ad457610ad3613f3f565b5b90816003811115610ae857610ae7613f3f565b5b8152505060028160000151600181518110610b0657610b05613f10565b5b60200260200101906003811115610b2057610b1f613f3f565b5b90816003811115610b3457610b33613f3f565b5b81525050610bb2303073ffffffffffffffffffffffffffffffffffffffff1663c0f6934e3387604051602401610b6b929190613ee7565b604051602081830303815290604052915060e01b6020820180517bffffffffffffffffffffffffffffffffffffffffffffffffffffffff8381831617835250505050611feb565b8160200151600081518110610bca57610bc9613f10565b5b6020026020010181905250610bdd612017565b8160200151600181518110610bf557610bf4613f10565b5b60200260200101819052506000610c0f308484600061202e565b905083600660003373ffffffffffffffffffffffffffffffffffffffff1673ffffffffffffffffffffffffffffffffffffffff16815260200190815260200160002060008381526020019081526020016000208190555080600760003373ffffffffffffffffffffffffffffffffffffffff1673ffffffffffffffffffffffffffffffffffffffff1681526020019081526020016000206000868152602001908152602001600020819055507f1a2bdc6629ecfb369ea4d9e75910187c98889d93b3ab6859b5bd75571480afa681604051610cea9190613931565b60405180910390a1809450505050509392505050565b6206978081565b7f000000000000000000000000000000000000000000000000000000000000000081565b600081600073ffffffffffffffffffffffffffffffffffffffff16600182604051610d569190613dd3565b908152602001604051809103902060009054906101000a900473ffffffffffffffffffffffffffffffffffffffff1673ffffffffffffffffffffffffffffffffffffffff1603610ddb576040517f08c379a0000000000000000000000000000000000000000000000000000000008152600401610dd290613e5c565b60405180910390fd5b600183604051610deb9190613dd3565b908152602001604051809103902060009054906101000a900473ffffffffffffffffffffffffffffffffffffffff1673ffffffffffffffffffffffffffffffffffffffff166370a08231336040518263ffffffff1660e01b8152600401610e52919061398d565b602060405180830381865afa158015610e6f573d6000803e3d6000fd5b505050506040513d601f19601f82011682018060405250810190610e939190613eba565b915050919050565b7f000000000000000000000000000000000000000000000000000000000000000081565b610ec76120dc565b610ed1600061215a565b565b7f000000000000000000000000000000000000000000000000000000000000000073ffffffffffffffffffffffffffffffffffffffff163373ffffffffffffffffffffffffffffffffffffffff1614610f61576040517f08c379a0000000000000000000000000000000000000000000000000000000008152600401610f5890613fe0565b60405180910390fd5b7f000000000000000000000000000000000000000000000000000000000000000073ffffffffffffffffffffffffffffffffffffffff16631c20fadd7f000000000000000000000000000000000000000000000000000000000000000083856040518463ffffffff1660e01b8152600401610fde93929190614021565b600060405180830381600087803b158015610ff857600080fd5b505af115801561100c573d6000803e3d6000fd5b505050505050565b6000611020338361221e565b9050919050565b60008060009054906101000a900473ffffffffffffffffffffffffffffffffffffffff16905090565b6001818051602081018201805184825260208301602085012081835280955050505050506000915054906101000a900473ffffffffffffffffffffffffffffffffffffffff1681565b7f000000000000000000000000000000000000000000000000000000000000000081565b60006040518060400160405280600481526020017f5745544800000000000000000000000000000000000000000000000000000000815250828061110083610d2b565b11611140576040517f08c379a0000000000000000000000000000000000000000000000000000000008152600401611137906140a4565b60405180910390fd5b6040518060400160405280600481526020017f57455448000000000000000000000000000000000000000000000000000000008152508480611181836107f8565b10156111c2576040517f08c379a00000000000000000000000000000000000000000000000000000000081526004016111b990614136565b60405180910390fd5b600060016040516111d2906141a2565b908152602001604051809103902060009054906101000a900473ffffffffffffffffffffffffffffffffffffffff1690506000600160405161121390614203565b908152602001604051809103902060009054906101000a900473ffffffffffffffffffffffffffffffffffffffff1690506112508233308b6123c2565b61127b827f00000000000000000000000000000000000000000000000000000000000000008a61251a565b60006040518061010001604052808473ffffffffffffffffffffffffffffffffffffffff1681526020018373ffffffffffffffffffffffffffffffffffffffff168152602001610bb862ffffff1681526020013373ffffffffffffffffffffffffffffffffffffffff1681526020014281526020018a815260200160008152602001600073ffffffffffffffffffffffffffffffffffffffff1681525090507f000000000000000000000000000000000000000000000000000000000000000073ffffffffffffffffffffffffffffffffffffffff1663414bf389826040518263ffffffff1660e01b815260040161137391906142e7565b6020604051808303816000875af1158015611392573d6000803e3d6000fd5b505050506040513d601f19601f820116820180604052508101906113b69190613eba565b975050505050505050919050565b60008060016040516113d590614203565b908152602001604051809103902060009054906101000a900473ffffffffffffffffffffffffffffffffffffffff169050611431817f00000000000000000000000000000000000000000000000000000000000000008561251a565b6001915050919050565b600066b1a2bc2ec500003411611486576040517f08c379a000000000000000000000000000000000000000000000000000000000815260040161147d90614375565b60405180910390fd5b60006001604051611496906141a2565b908152602001604051809103902060009054906101000a900473ffffffffffffffffffffffffffffffffffffffff16905060008190508073ffffffffffffffffffffffffffffffffffffffff1663d0e30db0346040518263ffffffff1660e01b81526004016000604051808303818588803b15801561151457600080fd5b505af1158015611528573d6000803e3d6000fd5b50505050508073ffffffffffffffffffffffffffffffffffffffff1663a9059cbb33346040518363ffffffff1660e01b8152600401611568929190613ee7565b6020604051808303816000875af1158015611587573d6000803e3d6000fd5b505050506040513d601f19601f820116820180604052508101906115ab91906143c1565b5060019250505090565b600080600260008573ffffffffffffffffffffffffffffffffffffffff1673ffffffffffffffffffffffffffffffffffffffff168152602001908152602001600020838154811061160957611608613f10565b5b906000526020600020906003020160405180606001604052908160008201805461163290613d66565b80601f016020809104026020016040519081016040528092919081815260200182805461165e90613d66565b80156116ab5780601f10611680576101008083540402835291602001916116ab565b820191906000526020600020905b81548152906001019060200180831161168e57829003601f168201915b5050505050815260200160018201548152602001600282015481525050905080604001514210156116eb576116e9816020015182600001518661266f565b505b600191505092915050565b600581565b600060606000600260003373ffffffffffffffffffffffffffffffffffffffff1673ffffffffffffffffffffffffffffffffffffffff168152602001908152602001600020848154811061175257611751613f10565b5b906000526020600020906003020160405180606001604052908160008201805461177b90613d66565b80601f01602080910402602001604051908101604052809291908181526020018280546117a790613d66565b80156117f45780601f106117c9576101008083540402835291602001916117f4565b820191906000526020600020905b8154815290600101906020018083116117d757829003601f168201915b50505050508152602001600182015481526020016002820154815250509050806040015142109250826118ba5761182b858561221e565b506000600760008773ffffffffffffffffffffffffffffffffffffffff1673ffffffffffffffffffffffffffffffffffffffff16815260200190815260200160002060008681526020019081526020016000205490507fc6f718cce3764ab364b3fc130d97e0fa483cb9bc022bdd57bd174468da18b9dc816040516118b09190613931565b60405180910390a1505b3073ffffffffffffffffffffffffffffffffffffffff1663b9b8c24686866040516024016118e9929190613ee7565b604051602081830303815290604052915060e01b6020820180517bffffffffffffffffffffffffffffffffffffffffffffffffffffffff83818316178352505050509150509250929050565b7f000000000000000000000000000000000000000000000000000000000000000081565b6119616120dc565b7f88a5966d370b9919b20f3e2c13ff65706f196a4e32cc2c12bf57088f885258743334604051611992929190613ee7565b60405180910390a1565b610bb881565b7f000000000000000000000000000000000000000000000000000000000000000081565b7f000000000000000000000000000000000000000000000000000000000000000081565b6301e1338081565b6119fa6120dc565b600073ffffffffffffffffffffffffffffffffffffffff168173ffffffffffffffffffffffffffffffffffffffff1603611a69576040517f08c379a0000000000000000000000000000000000000000000000000000000008152600401611a6090614460565b60405180910390fd5b611a728161215a565b50565b600083600073ffffffffffffffffffffffffffffffffffffffff16600182604051611aa09190613dd3565b908152602001604051809103902060009054906101000a900473ffffffffffffffffffffffffffffffffffffffff1673ffffffffffffffffffffffffffffffffffffffff1603611b25576040517f08c379a0000000000000000000000000000000000000000000000000000000008152600401611b1c90613e5c565b60405180910390fd5b6040518060400160405280600481526020017f55534443000000000000000000000000000000000000000000000000000000008152508680611b6683610d2b565b11611ba6576040517f08c379a0000000000000000000000000000000000000000000000000000000008152600401611b9d906140a4565b60405180910390fd5b6040518060400160405280600481526020017f55534443000000000000000000000000000000000000000000000000000000008152508880611be7836107f8565b1015611c28576040517f08c379a0000000000000000000000000000000000000000000000000000000008152600401611c1f90614136565b60405180910390fd5b62015180975060008a11611c71576040517f08c379a0000000000000000000000000000000000000000000000000000000008152600401611c68906144cc565b60405180910390fd5b611c7a87612aab565b611cb9576040517f08c379a0000000000000000000000000000000000000000000000000000000008152600401611cb09061455e565b60405180910390fd5b611cc3878a612b06565b15611d03576040517f08c379a0000000000000000000000000000000000000000000000000000000008152600401611cfa906145f0565b60405180910390fd5b60008842611d11919061463f565b905060006018603c808c611d2591906146a2565b611d2f91906146a2565b611d3991906146a2565b90506000818d611d4991906146a2565b9050600060405180606001604052808e8152602001838152602001858152509050600260008c73ffffffffffffffffffffffffffffffffffffffff1673ffffffffffffffffffffffffffffffffffffffff1681526020019081526020016000208190806001815401808255809150506001900390600052602060002090600302016000909190919091506000820151816000019081611de89190614875565b5060208201518160010155604082015181600201555050600260008c73ffffffffffffffffffffffffffffffffffffffff1673ffffffffffffffffffffffffffffffffffffffff16815260200190815260200160002080549050600360008d73ffffffffffffffffffffffffffffffffffffffff1673ffffffffffffffffffffffffffffffffffffffff1681526020019081526020016000208260000151604051611e939190613dd3565b9081526020016040518091039020819055506000600560008d73ffffffffffffffffffffffffffffffffffffffff1673ffffffffffffffffffffffffffffffffffffffff1681526020019081526020016000205403611f995760048b9080600181540180825580915050600190039060005260206000200160009091909190916101000a81548173ffffffffffffffffffffffffffffffffffffffff021916908373ffffffffffffffffffffffffffffffffffffffff160217905550600480549050600560008d73ffffffffffffffffffffffffffffffffffffffff1673ffffffffffffffffffffffffffffffffffffffff168152602001908152602001600020819055505b7f461f48130136ac8c7ed8e3602a1152cc0dd3786d75f357b981763539e6fbf6be8b82604051611fca929190614997565b60405180910390a16004805490509950505050505050505050949350505050565b606082826040516020016120009291906149c7565b604051602081830303815290604052905092915050565b606060405180602001604052806000815250905090565b60007f000000000000000000000000000000000000000000000000000000000000000073ffffffffffffffffffffffffffffffffffffffff16633323b467868686866040518563ffffffff1660e01b815260040161208f9493929190614c3e565b6020604051808303816000875af11580156120ae573d6000803e3d6000fd5b505050506040513d601f19601f820116820180604052508101906120d29190614cbd565b9050949350505050565b6120e4612b6f565b73ffffffffffffffffffffffffffffffffffffffff16612102611027565b73ffffffffffffffffffffffffffffffffffffffff1614612158576040517f08c379a000000000000000000000000000000000000000000000000000000000815260040161214f90614d36565b60405180910390fd5b565b60008060009054906101000a900473ffffffffffffffffffffffffffffffffffffffff169050816000806101000a81548173ffffffffffffffffffffffffffffffffffffffff021916908373ffffffffffffffffffffffffffffffffffffffff1602179055508173ffffffffffffffffffffffffffffffffffffffff168173ffffffffffffffffffffffffffffffffffffffff167f8be0079c531659141344cd1fd0a4f28419497f9722a3daafe3b4186f6b6457e060405160405180910390a35050565b600080600260003373ffffffffffffffffffffffffffffffffffffffff1673ffffffffffffffffffffffffffffffffffffffff168152602001908152602001600020838154811061227257612271613f10565b5b906000526020600020906003020160405180606001604052908160008201805461229b90613d66565b80601f01602080910402602001604051908101604052809291908181526020018280546122c790613d66565b80156123145780601f106122e957610100808354040283529160200191612314565b820191906000526020600020905b8154815290600101906020018083116122f757829003601f168201915b505050505081526020016001820154815260200160028201548152505090506000612343338360000151612b77565b905080156123b5576000600760008773ffffffffffffffffffffffffffffffffffffffff1673ffffffffffffffffffffffffffffffffffffffff16815260200190815260200160002060008681526020019081526020016000205490506123a9816133f9565b600193505050506123bc565b6000925050505b92915050565b6000808573ffffffffffffffffffffffffffffffffffffffff166323b872dd60e01b8686866040516024016123f993929190614d56565b604051602081830303815290604052907bffffffffffffffffffffffffffffffffffffffffffffffffffffffff19166020820180517bffffffffffffffffffffffffffffffffffffffffffffffffffffffff83818316178352505050506040516124639190614dc9565b6000604051808303816000865af19150503d80600081146124a0576040519150601f19603f3d011682016040523d82523d6000602084013e6124a5565b606091505b50915091508180156124d357506000815114806124d25750808060200190518101906124d191906143c1565b5b5b612512576040517f08c379a000000000000000000000000000000000000000000000000000000000815260040161250990614e2c565b60405180910390fd5b505050505050565b6000808473ffffffffffffffffffffffffffffffffffffffff1663095ea7b360e01b858560405160240161254f929190613ee7565b604051602081830303815290604052907bffffffffffffffffffffffffffffffffffffffffffffffffffffffff19166020820180517bffffffffffffffffffffffffffffffffffffffffffffffffffffffff83818316178352505050506040516125b99190614dc9565b6000604051808303816000865af19150503d80600081146125f6576040519150601f19603f3d011682016040523d82523d6000602084013e6125fb565b606091505b5091509150818015612629575060008151148061262857508080602001905181019061262791906143c1565b5b5b612668576040517f08c379a000000000000000000000000000000000000000000000000000000000815260040161265f90614e98565b60405180910390fd5b5050505050565b600082600073ffffffffffffffffffffffffffffffffffffffff1660018260405161269a9190613dd3565b908152602001604051809103902060009054906101000a900473ffffffffffffffffffffffffffffffffffffffff1673ffffffffffffffffffffffffffffffffffffffff160361271f576040517f08c379a000000000000000000000000000000000000000000000000000000000815260040161271690613e5c565b60405180910390fd5b6040518060400160405280600481526020017f5553444300000000000000000000000000000000000000000000000000000000815250858061276083610d2b565b116127a0576040517f08c379a0000000000000000000000000000000000000000000000000000000008152600401612797906140a4565b60405180910390fd5b6040518060400160405280600481526020017f555344430000000000000000000000000000000000000000000000000000000081525087806127e1836107f8565b1015612822576040517f08c379a000000000000000000000000000000000000000000000000000000000815260040161281990614136565b60405180910390fd5b6000600560008973ffffffffffffffffffffffffffffffffffffffff1673ffffffffffffffffffffffffffffffffffffffff16815260200190815260200160002054036128a4576040517f08c379a000000000000000000000000000000000000000000000000000000000815260040161289b90614f2a565b60405180910390fd5b600060016040516128b490614203565b908152602001604051809103902060009054906101000a900473ffffffffffffffffffffffffffffffffffffffff169050600060018a6040516128f79190613dd3565b908152602001604051809103902060009054906101000a900473ffffffffffffffffffffffffffffffffffffffff169050612934828a308e6123c2565b61295f827f00000000000000000000000000000000000000000000000000000000000000008d61251a565b60006040518061010001604052808473ffffffffffffffffffffffffffffffffffffffff1681526020018373ffffffffffffffffffffffffffffffffffffffff168152602001610bb862ffffff1681526020018b73ffffffffffffffffffffffffffffffffffffffff1681526020014281526020018d815260200160008152602001600073ffffffffffffffffffffffffffffffffffffffff1681525090507f000000000000000000000000000000000000000000000000000000000000000073ffffffffffffffffffffffffffffffffffffffff1663414bf389826040518263ffffffff1660e01b8152600401612a5791906142e7565b6020604051808303816000875af1158015612a76573d6000803e3d6000fd5b505050506040513d601f19601f82011682018060405250810190612a9a9190613eba565b985050505050505050509392505050565b600060016005612abb9190614f4a565b600260008473ffffffffffffffffffffffffffffffffffffffff1673ffffffffffffffffffffffffffffffffffffffff16815260200190815260200160002080549050109050919050565b600080600360008573ffffffffffffffffffffffffffffffffffffffff1673ffffffffffffffffffffffffffffffffffffffff16815260200190815260200160002083604051612b569190613dd3565b9081526020016040518091039020541415905092915050565b600033905090565b600081600073ffffffffffffffffffffffffffffffffffffffff16600182604051612ba29190613dd3565b908152602001604051809103902060009054906101000a900473ffffffffffffffffffffffffffffffffffffffff1673ffffffffffffffffffffffffffffffffffffffff1603612c27576040517f08c379a0000000000000000000000000000000000000000000000000000000008152600401612c1e90613e5c565b60405180910390fd5b612c318484612b06565b612c70576040517f08c379a0000000000000000000000000000000000000000000000000000000008152600401612c6790614fca565b60405180910390fd5b60006001600360008773ffffffffffffffffffffffffffffffffffffffff1673ffffffffffffffffffffffffffffffffffffffff16815260200190815260200160002085604051612cc19190613dd3565b908152602001604051809103902054612cda9190614f4a565b90506000600260008773ffffffffffffffffffffffffffffffffffffffff1673ffffffffffffffffffffffffffffffffffffffff1681526020019081526020016000208281548110612d2f57612d2e613f10565b5b9060005260206000209060030201604051806060016040529081600082018054612d5890613d66565b80601f0160208091040260200160405190810160405280929190818152602001828054612d8490613d66565b8015612dd15780601f10612da657610100808354040283529160200191612dd1565b820191906000526020600020905b815481529060010190602001808311612db457829003601f168201915b50505050508152602001600182015481526020016002820154815250509050600260008773ffffffffffffffffffffffffffffffffffffffff1673ffffffffffffffffffffffffffffffffffffffff1681526020019081526020016000206001600260008973ffffffffffffffffffffffffffffffffffffffff1673ffffffffffffffffffffffffffffffffffffffff16815260200190815260200160002080549050612e7e9190614f4a565b81548110612e8f57612e8e613f10565b5b9060005260206000209060030201600260008873ffffffffffffffffffffffffffffffffffffffff1673ffffffffffffffffffffffffffffffffffffffff1681526020019081526020016000208381548110612eee57612eed613f10565b5b906000526020600020906003020160008201816000019081612f109190615000565b506001820154816001015560028201548160020155905050600260008773ffffffffffffffffffffffffffffffffffffffff1673ffffffffffffffffffffffffffffffffffffffff168152602001908152602001600020805480612f7757612f766150e8565b5b600190038181906000526020600020906003020160008082016000612f9c9190613487565b6001820160009055600282016000905550509055600360008773ffffffffffffffffffffffffffffffffffffffff1673ffffffffffffffffffffffffffffffffffffffff16815260200190815260200160002085604051612ffd9190613dd3565b9081526020016040518091039020600090556000600260008873ffffffffffffffffffffffffffffffffffffffff1673ffffffffffffffffffffffffffffffffffffffff168152602001908152602001600020838154811061306257613061613f10565b5b9060005260206000209060030201600001805461307e90613d66565b80601f01602080910402602001604051908101604052809291908181526020018280546130aa90613d66565b80156130f75780601f106130cc576101008083540402835291602001916130f7565b820191906000526020600020905b8154815290600101906020018083116130da57829003601f168201915b5050505050905082600360008973ffffffffffffffffffffffffffffffffffffffff1673ffffffffffffffffffffffffffffffffffffffff1681526020019081526020016000208260405161314c9190613dd3565b9081526020016040518091039020819055506000600260008973ffffffffffffffffffffffffffffffffffffffff1673ffffffffffffffffffffffffffffffffffffffff16815260200190815260200160002080549050036133b25760006001600560008a73ffffffffffffffffffffffffffffffffffffffff1673ffffffffffffffffffffffffffffffffffffffff168152602001908152602001600020546131f69190614f4a565b90506004600160048054905061320c9190614f4a565b8154811061321d5761321c613f10565b5b9060005260206000200160009054906101000a900473ffffffffffffffffffffffffffffffffffffffff166004828154811061325c5761325b613f10565b5b9060005260206000200160006101000a81548173ffffffffffffffffffffffffffffffffffffffff021916908373ffffffffffffffffffffffffffffffffffffffff16021790555060048054806132b6576132b56150e8565b5b6001900381819060005260206000200160006101000a81549073ffffffffffffffffffffffffffffffffffffffff02191690559055600560008973ffffffffffffffffffffffffffffffffffffffff1673ffffffffffffffffffffffffffffffffffffffff1681526020019081526020016000206000905580600560006004848154811061334757613346613f10565b5b9060005260206000200160009054906101000a900473ffffffffffffffffffffffffffffffffffffffff1673ffffffffffffffffffffffffffffffffffffffff1673ffffffffffffffffffffffffffffffffffffffff16815260200190815260200160002081905550505b7f461f48130136ac8c7ed8e3602a1152cc0dd3786d75f357b981763539e6fbf6be33836040516133e3929190614997565b60405180910390a1600194505050505092915050565b7f000000000000000000000000000000000000000000000000000000000000000073ffffffffffffffffffffffffffffffffffffffff1663ee8ca3b5826040518263ffffffff1660e01b81526004016134529190613931565b600060405180830381600087803b15801561346c57600080fd5b505af1158015613480573d6000803e3d6000fd5b5050505050565b50805461349390613d66565b6000825580601f106134a557506134c4565b601f0160209004906000526020600020908101906134c391906134c7565b5b50565b5b808211156134e05760008160009055506001016134c8565b5090565b600081519050919050565b600082825260208201905092915050565b6000819050602082019050919050565b600081519050919050565b600082825260208201905092915050565b60005b8381101561354a57808201518184015260208101905061352f565b60008484015250505050565b6000601f19601f8301169050919050565b600061357282613510565b61357c818561351b565b935061358c81856020860161352c565b61359581613556565b840191505092915050565b6000819050919050565b6135b3816135a0565b82525050565b600060608301600083015184820360008601526135d68282613567565b91505060208301516135eb60208601826135aa565b5060408301516135fe60408601826135aa565b508091505092915050565b600061361583836135b9565b905092915050565b6000602082019050919050565b6000613635826134e4565b61363f81856134ef565b93508360208202850161365185613500565b8060005b8581101561368d578484038952815161366e8582613609565b94506136798361361d565b925060208a01995050600181019050613655565b50829750879550505050505092915050565b600060208201905081810360008301526136b9818461362a565b905092915050565b6000604051905090565b600080fd5b600080fd5b600080fd5b600080fd5b7f4e487b7100000000000000000000000000000000000000000000000000000000600052604160045260246000fd5b61371782613556565b810181811067ffffffffffffffff82111715613736576137356136df565b5b80604052505050565b60006137496136c1565b9050613755828261370e565b919050565b600067ffffffffffffffff821115613775576137746136df565b5b61377e82613556565b9050602081019050919050565b82818337600083830152505050565b60006137ad6137a88461375a565b61373f565b9050828152602081018484840111156137c9576137c86136da565b5b6137d484828561378b565b509392505050565b600082601f8301126137f1576137f06136d5565b5b813561380184826020860161379a565b91505092915050565b6000602082840312156138205761381f6136cb565b5b600082013567ffffffffffffffff81111561383e5761383d6136d0565b5b61384a848285016137dc565b91505092915050565b61385c816135a0565b82525050565b60006020820190506138776000830184613853565b92915050565b613886816135a0565b811461389157600080fd5b50565b6000813590506138a38161387d565b92915050565b6000806000606084860312156138c2576138c16136cb565b5b60006138d086828701613894565b935050602084013567ffffffffffffffff8111156138f1576138f06136d0565b5b6138fd868287016137dc565b925050604061390e86828701613894565b9150509250925092565b6000819050919050565b61392b81613918565b82525050565b60006020820190506139466000830184613922565b92915050565b600073ffffffffffffffffffffffffffffffffffffffff82169050919050565b60006139778261394c565b9050919050565b6139878161396c565b82525050565b60006020820190506139a2600083018461397e565b92915050565b6139b18161396c565b81146139bc57600080fd5b50565b6000813590506139ce816139a8565b92915050565b600080604083850312156139eb576139ea6136cb565b5b60006139f985828601613894565b9250506020613a0a858286016139bf565b9150509250929050565b600060208284031215613a2a57613a296136cb565b5b6000613a3884828501613894565b91505092915050565b60008115159050919050565b613a5681613a41565b82525050565b6000602082019050613a716000830184613a4d565b92915050565b60008060408385031215613a8e57613a8d6136cb565b5b6000613a9c858286016139bf565b9250506020613aad85828601613894565b9150509250929050565b600081519050919050565b600082825260208201905092915050565b6000613ade82613ab7565b613ae88185613ac2565b9350613af881856020860161352c565b613b0181613556565b840191505092915050565b6000604082019050613b216000830185613a4d565b8181036020830152613b338184613ad3565b90509392505050565b6000819050919050565b6000613b61613b5c613b578461394c565b613b3c565b61394c565b9050919050565b6000613b7382613b46565b9050919050565b6000613b8582613b68565b9050919050565b613b9581613b7a565b82525050565b6000602082019050613bb06000830184613b8c565b92915050565b600062ffffff82169050919050565b613bce81613bb6565b82525050565b6000602082019050613be96000830184613bc5565b92915050565b6000613bfa82613b68565b9050919050565b613c0a81613bef565b82525050565b6000602082019050613c256000830184613c01565b92915050565b6000613c3682613b68565b9050919050565b613c4681613c2b565b82525050565b6000602082019050613c616000830184613c3d565b92915050565b600060208284031215613c7d57613c7c6136cb565b5b6000613c8b848285016139bf565b91505092915050565b600082825260208201905092915050565b7f53656e64657220446f6573206e6f7420686176652061637469766520696e766560008201527f73746d656e747300000000000000000000000000000000000000000000000000602082015250565b6000613d01602783613c94565b9150613d0c82613ca5565b604082019050919050565b60006020820190508181036000830152613d3081613cf4565b9050919050565b7f4e487b7100000000000000000000000000000000000000000000000000000000600052602260045260246000fd5b60006002820490506001821680613d7e57607f821691505b602082108103613d9157613d90613d37565b5b50919050565b600081905092915050565b6000613dad82613510565b613db78185613d97565b9350613dc781856020860161352c565b80840191505092915050565b6000613ddf8284613da2565b915081905092915050565b7f5468697320436f6e747261637420646f6573206e6f7420737570706f7274207060008201527f726f766964656420746f6b656e2073796d626f6c000000000000000000000000602082015250565b6000613e46603483613c94565b9150613e5182613dea565b604082019050919050565b60006020820190508181036000830152613e7581613e39565b9050919050565b6000604082019050613e91600083018561397e565b613e9e602083018461397e565b9392505050565b600081519050613eb48161387d565b92915050565b600060208284031215613ed057613ecf6136cb565b5b6000613ede84828501613ea5565b91505092915050565b6000604082019050613efc600083018561397e565b613f096020830184613853565b9392505050565b7f4e487b7100000000000000000000000000000000000000000000000000000000600052603260045260246000fd5b7f4e487b7100000000000000000000000000000000000000000000000000000000600052602160045260246000fd5b7f4f6e6c792066756e6473206f776e65722063616e20776974686472617720667560008201527f6e64730000000000000000000000000000000000000000000000000000000000602082015250565b6000613fca602383613c94565b9150613fd582613f6e565b604082019050919050565b60006020820190508181036000830152613ff981613fbd565b9050919050565b600061400b8261394c565b9050919050565b61401b81614000565b82525050565b60006060820190506140366000830186614012565b614043602083018561397e565b6140506040830184613853565b949350505050565b7f4e6f7420656e6f7567682066756e647300000000000000000000000000000000600082015250565b600061408e601083613c94565b915061409982614058565b602082019050919050565b600060208201905081810360008301526140bd81614081565b9050919050565b7f4d75737420617070726f766520636f727265637420616d6f756e74206f66205560008201527f53444320746f6b656e73206265666f7265207377617000000000000000000000602082015250565b6000614120603683613c94565b915061412b826140c4565b604082019050919050565b6000602082019050818103600083015261414f81614113565b9050919050565b7f5745544800000000000000000000000000000000000000000000000000000000600082015250565b600061418c600483613d97565b915061419782614156565b600482019050919050565b60006141ad8261417f565b9150819050919050565b7f5553444300000000000000000000000000000000000000000000000000000000600082015250565b60006141ed600483613d97565b91506141f8826141b7565b600482019050919050565b600061420e826141e0565b9150819050919050565b6142218161396c565b82525050565b61423081613bb6565b82525050565b61423f8161394c565b82525050565b6101008201600082015161425c6000850182614218565b50602082015161426f6020850182614218565b5060408201516142826040850182614227565b5060608201516142956060850182614218565b5060808201516142a860808501826135aa565b5060a08201516142bb60a08501826135aa565b5060c08201516142ce60c08501826135aa565b5060e08201516142e160e0850182614236565b50505050565b6000610100820190506142fd6000830184614245565b92915050565b7f4d7573742070617373206174206c6561737420302e312045544820696e206d7360008201527f672e76616c756500000000000000000000000000000000000000000000000000602082015250565b600061435f602783613c94565b915061436a82614303565b604082019050919050565b6000602082019050818103600083015261438e81614352565b9050919050565b61439e81613a41565b81146143a957600080fd5b50565b6000815190506143bb81614395565b92915050565b6000602082840312156143d7576143d66136cb565b5b60006143e5848285016143ac565b91505092915050565b7f4f776e61626c653a206e6577206f776e657220697320746865207a65726f206160008201527f6464726573730000000000000000000000000000000000000000000000000000602082015250565b600061444a602683613c94565b9150614455826143ee565b604082019050919050565b600060208201905081810360008301526144798161443d565b9050919050565b7f416d6f756e74206d7573742062652067726561746572207468616e2030000000600082015250565b60006144b6601d83613c94565b91506144c182614480565b602082019050919050565b600060208201905081810360008301526144e5816144a9565b9050919050565b7f43616e206f6e6c792068617665203520616374697661746520696e766573746d60008201527f656e7473206174207468652073616d652074696d650000000000000000000000602082015250565b6000614548603583613c94565b9150614553826144ec565b604082019050919050565b600060208201905081810360008301526145778161453b565b9050919050565b7f4f6e6c79206f6e6520696e766573746d656e742070657220746f6b656e20697360008201527f207065726d697474656400000000000000000000000000000000000000000000602082015250565b60006145da602a83613c94565b91506145e58261457e565b604082019050919050565b60006020820190508181036000830152614609816145cd565b9050919050565b7f4e487b7100000000000000000000000000000000000000000000000000000000600052601160045260246000fd5b600061464a826135a0565b9150614655836135a0565b925082820190508082111561466d5761466c614610565b5b92915050565b7f4e487b7100000000000000000000000000000000000000000000000000000000600052601260045260246000fd5b60006146ad826135a0565b91506146b8836135a0565b9250826146c8576146c7614673565b5b828204905092915050565b60008190508160005260206000209050919050565b60006020601f8301049050919050565b600082821b905092915050565b6000600883026147357fffffffffffffffffffffffffffffffffffffffffffffffffffffffffffffffff826146f8565b61473f86836146f8565b95508019841693508086168417925050509392505050565b600061477261476d614768846135a0565b613b3c565b6135a0565b9050919050565b6000819050919050565b61478c83614757565b6147a061479882614779565b848454614705565b825550505050565b600090565b6147b56147a8565b6147c0818484614783565b505050565b5b818110156147e4576147d96000826147ad565b6001810190506147c6565b5050565b601f821115614829576147fa816146d3565b614803846146e8565b81016020851015614812578190505b61482661481e856146e8565b8301826147c5565b50505b505050565b600082821c905092915050565b600061484c6000198460080261482e565b1980831691505092915050565b6000614865838361483b565b9150826002028217905092915050565b61487e82613510565b67ffffffffffffffff811115614897576148966136df565b5b6148a18254613d66565b6148ac8282856147e8565b600060209050601f8311600181146148df57600084156148cd578287015190505b6148d78582614859565b86555061493f565b601f1984166148ed866146d3565b60005b82811015614915578489015182556001820191506020850194506020810190506148f0565b86831015614932578489015161492e601f89168261483b565b8355505b6001600288020188555050505b505050505050565b600060608301600083015184820360008601526149648282613567565b915050602083015161497960208601826135aa565b50604083015161498c60408601826135aa565b508091505092915050565b60006040820190506149ac600083018561397e565b81810360208301526149be8184614947565b90509392505050565b60006040820190506149dc600083018561397e565b81810360208301526149ee8184613ad3565b90509392505050565b600081519050919050565b600082825260208201905092915050565b6000819050602082019050919050565b60048110614a3457614a33613f3f565b5b50565b6000819050614a4582614a23565b919050565b6000614a5582614a37565b9050919050565b614a6581614a4a565b82525050565b6000614a778383614a5c565b60208301905092915050565b6000602082019050919050565b6000614a9b826149f7565b614aa58185614a02565b9350614ab083614a13565b8060005b83811015614ae1578151614ac88882614a6b565b9750614ad383614a83565b925050600181019050614ab4565b5085935050505092915050565b600081519050919050565b600082825260208201905092915050565b6000819050602082019050919050565b600082825260208201905092915050565b6000614b3682613ab7565b614b408185614b1a565b9350614b5081856020860161352c565b614b5981613556565b840191505092915050565b6000614b708383614b2b565b905092915050565b6000602082019050919050565b6000614b9082614aee565b614b9a8185614af9565b935083602082028501614bac85614b0a565b8060005b85811015614be85784840389528151614bc98582614b64565b9450614bd483614b78565b925060208a01995050600181019050614bb0565b50829750879550505050505092915050565b60006040830160008301518482036000860152614c178282614a90565b91505060208301518482036020860152614c318282614b85565b9150508091505092915050565b6000608082019050614c53600083018761397e565b8181036020830152614c658186613ad3565b90508181036040830152614c798185614bfa565b9050614c88606083018461397e565b95945050505050565b614c9a81613918565b8114614ca557600080fd5b50565b600081519050614cb781614c91565b92915050565b600060208284031215614cd357614cd26136cb565b5b6000614ce184828501614ca8565b91505092915050565b7f4f776e61626c653a2063616c6c6572206973206e6f7420746865206f776e6572600082015250565b6000614d20602083613c94565b9150614d2b82614cea565b602082019050919050565b60006020820190508181036000830152614d4f81614d13565b9050919050565b6000606082019050614d6b600083018661397e565b614d78602083018561397e565b614d856040830184613853565b949350505050565b600081905092915050565b6000614da382613ab7565b614dad8185614d8d565b9350614dbd81856020860161352c565b80840191505092915050565b6000614dd58284614d98565b915081905092915050565b7f5354460000000000000000000000000000000000000000000000000000000000600082015250565b6000614e16600383613c94565b9150614e2182614de0565b602082019050919050565b60006020820190508181036000830152614e4581614e09565b9050919050565b7f5341000000000000000000000000000000000000000000000000000000000000600082015250565b6000614e82600283613c94565b9150614e8d82614e4c565b602082019050919050565b60006020820190508181036000830152614eb181614e75565b9050919050565b7f526563697069656e742061646472657320697320616e206163636f756e74206960008201527f6e2074686520636f6e7472616374000000000000000000000000000000000000602082015250565b6000614f14602e83613c94565b9150614f1f82614eb8565b604082019050919050565b60006020820190508181036000830152614f4381614f07565b9050919050565b6000614f55826135a0565b9150614f60836135a0565b9250828203905081811115614f7857614f77614610565b5b92915050565b7f496e766573746d656e74206e6f7420666f756e64000000000000000000000000600082015250565b6000614fb4601483613c94565b9150614fbf82614f7e565b602082019050919050565b60006020820190508181036000830152614fe381614fa7565b9050919050565b600081549050614ff981613d66565b9050919050565b81810361500e5750506150e6565b61501782614fea565b67ffffffffffffffff8111156150305761502f6136df565b5b61503a8254613d66565b6150458282856147e8565b6000601f8311600181146150745760008415615062578287015490505b61506c8582614859565b8655506150df565b601f198416615082876146d3565b965061508d866146d3565b60005b828110156150b557848901548255600182019150600185019450602081019050615090565b868310156150d257848901546150ce601f89168261483b565b8355505b6001600288020188555050505b5050505050505b565b7f4e487b7100000000000000000000000000000000000000000000000000000000600052603160045260246000fdfea2646970667358221220f249bdecb0e25cc5ef2e0876f63e3f7ead59c6a1c029095a13a2882c59a5948d64736f6c63430008110033",
  "linkReferences": {},
  "deployedLinkReferences": {}
}